:100000000C9472000C947E000C947E000C947E0084
:100010000C947E000C947E000C947E000C947E0068
:100020000C947E000C947E000C947E000C947E0058
:100030000C947E000C947E000C947E000C947E0048
:100040000C947E000C947E000C947E000C947E0038
:100050000C947E000C947E000C947E000C947E0028
:100060000C947E000C947E000C947E000C947E0018
:100070000C947E000C947E000C947E000C947E0008
:100080000C947E000C947E000C947E000C947E00F8
:100090000C947E000C947E000C947E000C947E00E8
:1000A0000C947E000C947E000C947E000C947E00D8
:1000B0000C947E000C947E000C947E000C947E00C8
:1000C0000C947E000C947E000C947E000C947E00B8
:1000D0000C947E000C947E000C947E000C947E00A8
:1000E0000C947E0011241FBECFEFD1E2DEBFCDBF46
:1000F00000E00CBF0E9495000C94B3000C9400002B
:1001000087E690E09093C5008093C40086E08093DA
:10011000C20088E18093C1000895E0ECF0E0908196
:1001200095FFFDCF8093C60008950E948000279A16
:100130006C98649B03C081E60E948D002F9A2FE388
:100140008DE093E0215080409040E1F700C0000036
:100150002F982FE38DE093E0215080409040E1F70D
:0A01600000C00000E6CFF894FFCFC6
:00000001FF
