:100000000C947A000C94AB000C94AB000C94AB00F5
:100010000C94AB000C94AB000C94AB000C94AB00B4
:100020000C94AB000C94AB000C94AB000C94AB00A4
:100030000C94AB000C94AB000C94AB000C94AB0094
:100040000C94AB000C94AB000C94AB000C94AB0084
:100050000C94AB000C94AB000C94AB000C947103AB
:100060000C94AB000C94AB000C94AB000C94AB0064
:100070000C94AB000C94AB000C94AB000C94AB0054
:100080000C94AB000C94AB000C94AB000C94AB0044
:100090000C94AB000C94AB000C94AB000C94AB0034
:1000A0000C94AB000C94AB000C94AB000C94AB0024
:1000B0000C94AB000C94AB000C94AB000C94AB0014
:1000C0000C94AB000C94AB000C94AB000C94AB0004
:1000D0000C94AB000C94AB000C94AB000C94AB00F4
:1000E0000C94AB000C9460010C94D4000C9442016D
:1000F0004201600111241FBECFEFD1E2DEBFCDBFB0
:1001000000E00CBF12E0A0E0B2E0E4E0FAE000E0C2
:100110000BBF02C007900D92AC3CB107D9F723E0AA
:10012000ACECB2E001C01D92A731B207E1F710E0DC
:10013000C9E7D0E000E006C021970109802FFE0149
:100140000E94D904C837D10780E00807A9F70E94A8
:10015000E7000C94F0040C940000DC01262F30E042
:10016000F901E95EFD4F608112966C931297F901D7
:10017000E35AFD4FE081F0E0EE0FFF1FEF5FFD4F10
:10018000808191818D939C9321E0411101C020E0F9
:10019000422F0E946D0108950895FC0162818081C3
:1001A00091810E948601089560910002809112035E
:1001B000909113030E94830180910002880F19F02F
:1001C00080930002089581E080930002089578945E
:1001D0008091130290911402909313038093120361
:1001E00061E00E947A016091000280911203909177
:1001F00013030E94830124ED30E048EE53E060E0F9
:1002000070E08EEC92E00E94ED02412C512C612CAA
:10021000712C812C912CD0E0C0E08EEC92E00E94F9
:100220000B0384E193E00E94CD008823B1F38EECB0
:1002300092E00E94B902A42CB52CC62CD72CE82C35
:10024000F92C0D2F1C2F0E94D004283E334041056D
:1002500051056105710581059105F9F2F0F28EEC09
:1002600092E00E94B902422E532E642E752E862EE5
:10027000972ED82FC92F6091000281E193E00E9450
:10028000C303CBCFEF920F9340E066E384E193E0AA
:100290000E94AD00E12C00E026E040E855E260E07D
:1002A00070E081E193E00E94990348EE53E060E042
:1002B00070E08EEC92E00E94D3010F91EF900895D0
:1002C0001092CD021092CC0281E193E00E94C20311
:1002D00084E193E00E94CC000895442329F0FC01BE
:1002E0002181622B618308956095FC012181622345
:1002F00061830895662321F02FEFFC012183089587
:10030000FC0111820895FC0162830895FC01808143
:10031000682381E009F480E00895FC0114821582CD
:1003200016821782108611861286138681E08183D9
:1003300010820895DC011296ED91FC9113971995A6
:100340000895CF93DF93FC012081222321F0EC015B
:100350000E949A011882DF91CF910895FC01448197
:100360005581668177814F5F5F4F6F4F7F4F448329
:1003700055836683778380859185A285B3854817E9
:1003800059076A077B0731F481E080831482158264
:10039000168217820895FC01408751876287738710
:1003A0003383228308952F923F924F925F926F92F0
:1003B0007F928F929F92AF92BF92CF92DF92EF92F5
:1003C000FF920F931F93CF93DF9300D01F92CDB76F
:1003D000DEB79C838B836A017B019093CD0280936F
:1003E000CC02FC01108211821282138214821582C7
:1003F0001682178211861086128613861486158639
:1004000016861786108A118A128A8C010D5E1F4F7C
:100410004C01F3E48F0E911CC8010E948D01045F12
:100420001F4F08151905C1F714BC6AE0C6166DE325
:10043000D606E104F10428F485E085BD20E034E02F
:1004400033C075E2C71674EFD706E104F10428F44F
:1004500084E085BD20E031E027C081E9C81680ED49
:10046000D80683E0E806F10428F483E085BD20E4A3
:1004700030E01AC091E8C91694E8D9069EE1E90671
:10048000F10428F482E085BD28E030E00DC0E1E011
:10049000CE16E4E2DE06E4EFEE06F10408F052C008
:1004A00081E085BD21E030E0032E000C440B550BAC
:1004B00060E074E284EF90E00E94ED03CA01B901AC
:1004C000A70196010E94CB032F3F3105410551053D
:1004D00009F0C0F580E091E0BC01621B730B7A83E8
:1004E0006983EB81FC8171876087E5B5E770F0E097
:1004F000EE0FFF1FEE0FFF1FEE0FFF1FE556FD4F24
:1005000019012A01A080B180C280D380E480F580E7
:1005100006811781332D442D552D60E070E080E079
:1005200090E00E940C04EB81FC8122873387448792
:10053000558766877787808B918BF981F6BD81E03F
:1005400080936E000F900F900F900F90DF91CF91DE
:100550001F910F91FF90EF90DF90CF90BF90AF90E1
:100560009F908F907F906F905F904F903F902F90D3
:100570000895AF92BF92CF92DF92EF92FF920F93C6
:100580001F93FC01A284B384C484D584E684F784D9
:100590000089118920813181428153816481758173
:1005A000868197810E940C040F2EF8EEAF2EF02D5D
:1005B0000F2EF3E0BF2EF02DC12CD12CE12CF12C0D
:1005C00000E010E00E9467041F910F91FF90EF90F0
:1005D000DF90CF90BF90AF900895CF93DF93DC0171
:1005E0005296EC915297E43098F4EC01F0E0CF0190
:1005F000880F991F8E0F9F1F880F991F880F991FB3
:1006000043968A0F9B1F0E94CB018A898F5F8A8B3A
:10061000DF91CF910895EF92FF920F931F93CF93A5
:10062000DF93FC012289222391F07C018C010D5E75
:100630001F4FC0E0D0E0C8010E94A1012196045FD5
:100640001F4FF701228930E0C217D307A4F3DF91CF
:10065000CF911F910F91FF90EF900895CF93DF936B
:10066000E091CC02F091CD02808586BDE091CC0274
:10067000F091CD0220813181428153816481758165
:1006800086819781A1E00E94C40420833183428344
:1006900053836483758386839783E091CC02F091C2
:1006A000CD0282898823D1F0C0E0D0E0CE01880F4E
:1006B000991F8C0F9D1F880F991F880F991F4396B4
:1006C0008E0F9F1F0E94AE012196E091CC02F09107
:1006D000CD02228930E0C217D30744F3DF91CF91D6
:1006E00008951F920F920FB60F9211240BB60F921E
:1006F0002F933F934F935F936F937F938F939F932A
:10070000AF93BF93EF93FF930E942E03FF91EF915E
:10071000BF91AF919F918F917F916F915F914F9119
:100720003F912F910F900BBE0F900FBE0F901F9017
:1007300018958F929F92AF92BF92EF920F93CF93A3
:100740004A015B01C22F60E472E48FE090E0A501F2
:1007500094010E94CB03215031093093C5002093AE
:10076000C400E1ECF0E0808188618083E02ACE293A
:10077000C093C200CF910F91EF90BF90AF909F9028
:100780008F9008950895E0ECF0E0808185FFFDCF23
:100790006093C6000895A1E21A2EAA1BBB1BFD019F
:1007A0000DC0AA1FBB1FEE1FFF1FA217B307E40750
:1007B000F50720F0A21BB30BE40BF50B661F771FA8
:1007C000881F991F1A9469F7609570958095909588
:1007D0009B01AC01BD01CF010895052E97FB1EF4CE
:1007E00000940E94040457FD07D00E94CB0307FC2D
:1007F00003D04EF40C940404509540953095219507
:100800003F4F4F4F5F4F089590958095709561953C
:100810007F4F8F4F9F4F0895DF93CF931F930F9379
:100820009A9DF02D219FF00D8B9DF00D8A9DE02D5E
:10083000F10D039FF00D029FE00DF11D4E9DE00DA7
:10084000F11D5E9DF00D4F9DF00D7F936F93BF9254
:10085000AF925F934F93D5010E94E1048B01AC01ED
:10086000D7010E94E104EB01E80FF91FD6010E94B5
:100870005C042F913F91D6010E94E104C60FD71F5F
:10088000E81FF91FAF91BF910E945C042F913F9127
:100890000E94E104C60FD71FE81FF91FD6010E946E
:1008A000E104E60FF71F9801BE01CF0111240F915B
:1008B0001F91CF91DF9108950E94E104460F571FC9
:1008C000C81FD91F08F431960895689401C0E894B0
:1008D0008F929F92CF93DF930E947304DF91CF9109
:1008E0009F908F90089588249924F401E401B0E446
:1008F0009F93AA279A158B049C04ED05FE05CF054E
:10090000D007A10798F4AD2FDC2FCF2FFE2FE92DB4
:10091000982C892E982F872F762F652F542F432FB1
:10092000322F2227B85031F7BF9127C01B2EBF911D
:10093000BB27220F331F441F551F661F771F881FB9
:10094000991F881C991CEE1FFF1FCC1FDD1FAA1FBB
:10095000BB1F8A149B04EC05FD05CE05DF05A0072F
:10096000B10748F08A189B08EC09FD09CE09DF0998
:10097000A00BB10B21601A94E1F62EF49401AF01A3
:10098000BE01CD01000C08950024A7FD00942A0F9C
:10099000301D401D501D601D701D801D901D08954F
:1009A0002A193B094C095D096E097F09800B910BDF
:1009B0000895EE0FFF1F881F8BBF0790F691E02D63
:1009C0001994A29FB001B39FC001A39F700D811D18
:1009D0001124911DB29F700D811D1124911D089548
:1009E00010E0C9E7D0E000E006C0802FFE010E94C1
:1009F000D9042196011DCA37D10780E00807A9F75D
:040A0000F894FFCF98
:100A04000120002300260029002C002F00320000C2
:100A14000103010601090101021020200808102029
:100A24004010204080020102010804020101020476
:100A34000810204080804020100804020180040235
:100A4400018040201008040201080402010102048C
:100A5400081020408001020408102040800404048F
:100A64000406040707070701010101080807070333
:100A7400030303000000000000000002020202025F
:100A8400020202030606060A0A0A0A0A0A0A0A01F6
:100A940001010105050505050505050909090909FA
:100AA4000909090000000000000000000000000027
:100AB400000000040000000000000010000000001E
:0C0AC400000000400000000000000000E6
:00000001FF
