:100000000C949F000C94C0000C94C0000C94C00091
:100010000C94C0000C94C0000C94C0000C94C00060
:100020000C94C0000C94C0000C94C0000C94C00050
:100030000C94C0000C94C0000C94C0000C94C00040
:100040000C94C0000C94C0000C94C0000C94C00030
:100050000C94C0000C94C0000C94C0000C94C00020
:100060000C94C0000C94C0000C94C0000C94C00010
:100070000C94C0000C94C0000C94C0000C94C00000
:100080000C94C0000C94C0000C94C0000C94C000F0
:100090000C94C0000C94C0000C94C0000C94C000E0
:1000A0000C94C0000C94C0000C94C0000C94C000D0
:1000B0000C94C0000C94C0000C94C0000C94C000C0
:1000C0000C94C0000C94C0000C94C0000C94C000B0
:1000D0000C94C0000C94C0000C94C0000C94C000A0
:1000E0000C94C00008000000BE922449123EABAA46
:1000F000AA2ABECDCCCC4C3E00000080BEABAAAA42
:10010000AA3E00000000BF000000803F0000000089
:1001100000084178D3BB4387D1133D190E3CC3BDC2
:100120004282AD2B3E68EC8276BED98FE1A93E4C6F
:1001300080EFFFBE01C4FF7F3F00000000001124DC
:100140001FBECFEFD1E2DEBFCDBF00E00CBF12E09B
:10015000A0E0B2E0EEE9F9E000E00BBF02C00790DA
:100160000D92A431B107D9F722E0A4E1B2E001C0B9
:100170001D92A432B207E1F70E94A6010C94CD04AF
:100180000C94000087E690E09093C5008093C40033
:1001900086E08093C20088E18093C1000895E0EC7E
:1001A000F0E0908195FFFDCF8093C600089580E434
:1001B00080937C0087E880937A000895EAE7F0E076
:1001C000808180648083808186FDFDCF809178006E
:1001D0009091790008952F9A08952F9808950E947C
:1001E000DE009C0140E050E02093140230931502A1
:1001F000409316025093170260E679EF88E196E08B
:100200000E946D04CA01B901605A76488140910983
:100210000E94600220E030E44CE156E40E943C037E
:100220000E942F02609318027093190280931A02A1
:1002300090931B0223EE36E040E050E00E944B0416
:10024000CA01B9010E945E020E94F4029B01AC0146
:1002500060E07FED80EC98E40E94BD010E942F02D7
:1002600060931C0270931D0280931E0290931F02E4
:10027000635B7A468109910924E630E040E050E072
:100280000E944B04209320023093210240932202CB
:10029000509323020895EF92FF920F931F93CF93F1
:1002A000DF938C017C01C0E0D0E0F80101900020D8
:1002B000E9F73197E01BF10BCE17DF073CF4F701AC
:1002C00081917F010E94CF002196EFCFDF91CF91E6
:1002D0001F910F91FF90EF900895CF93DF93CDB7CB
:1002E000DEB7E5970FB6F894DEBF0FBECDBF8FE047
:1002F000E0E0F2E0DE01119601900D928A95E1F7BF
:10030000FE01709685E0DF011D928A95E9F7CE0126
:1003100001960E944B016091200270912102809110
:100320002202909123022AE0AE014B5E5F4F0E94B1
:100330008C04CE0145960E944B01E5960FB6F894C9
:10034000DEBF0FBECDBFDF91CF910895279A0E94E7
:10035000C2000E94D7000E94EB000E94EF000E94A2
:10036000ED000E946D012FEF83ED90E3215080405E
:100370009040E1F700C00000EECF0E94D1010C9444
:10038000B2020E94AB0258F00E94A40240F029F48D
:100390005F3F29F00C949B0251110C94E6020C94DF
:1003A000A1020E94C30268F39923B1F3552391F38C
:1003B000951B550BBB27AA2762177307840738F0D4
:1003C0009F5F5F4F220F331F441FAA1FA9F335D031
:1003D0000E2E3AF0E0E832D091505040E695001CE5
:1003E000CAF72BD0FE2F29D0660F771F881FBB1F9F
:1003F000261737074807AB07B0E809F0BB0B802D7D
:10040000BF01FF2793585F4F3AF09E3F510578F0A8
:100410000C949B020C94E6025F3FE4F3983ED4F305
:10042000869577956795B795F7959F5FC9F7880F7C
:10043000911D9695879597F90895E1E0660F771FCE
:10044000881FBB1F621773078407BA0720F0621B5F
:10045000730B840BBA0BEE1F88F7E09508950E948A
:10046000CB0288F09F5798F0B92F9927B751B0F079
:10047000E1F0660F771F881F991F1AF0BA95C9F728
:1004800014C0B13091F00E94E502B1E008950C94DF
:10049000E502672F782F8827B85F39F0B93FCCF392
:1004A000869577956795B395D9F73EF490958095A5
:1004B000709561957F4F8F4F9F4F0895E89409C0C5
:1004C00097FB3EF490958095709561957F4F8F4F87
:1004D0009F4F9923A9F0F92F96E9BB279395F6959D
:1004E000879577956795B795F111F8CFFAF4BB0F1B
:1004F00011F460FF1BC06F5F7F4F8F4F9F4F16C07F
:10050000882311F096E911C0772321F09EE8872F08
:10051000762F05C0662371F096E8862F70E060E0C4
:100520002AF09A95660F771F881FDAF7880F96953D
:10053000879597F9089597F99F6780E870E060E0E4
:1005400008959FEF80EC089500240A94161617066C
:1005500018060906089500240A94121613061406B4
:1005600005060895092E0394000C11F4882352F017
:10057000BB0F40F4BF2B11F460FF04C06F5F7F4FCF
:100580008F4F9F4F089557FD9058440F551F59F0B6
:100590005F3F71F04795880F97FB991F61F09F3F70
:1005A00079F087950895121613061406551FF2CF99
:1005B0004695F1DF08C0161617061806991FF1CFE9
:1005C00086957105610508940895E894BB27662710
:1005D0007727CB0197F9089516F00C9416040C9424
:1005E000A10268940C949B020E94CB02A8F3992369
:1005F000C1F3AEF3DF93CF931F930F93FF92C92FF5
:10060000DD2788232AF02197660F771F881FDAF7E6
:1006100020E030E040E85FEB9FE3883920F0803E47
:1006200038F021968F770E94AA03E4EEF0E004C030
:100630000E94AA03E1E1F1E00E9424048B01BE01C3
:10064000EC01FB2E6F5771097595771F880B990B7D
:100650000E94600228E132E741E35FE30E944F031A
:10066000AF2D9801AE01FF900F911F91CF91DF91B7
:100670000E94C1030C94B2020E944F030C94B20278
:100680000E94A40238F00E94AB0220F0952311F0E2
:100690000C949B020C94A10211240C94E6020E947B
:1006A000C30270F3959FC1F3950F50E0551F629FF1
:1006B000F001729FBB27F00DB11D639FAA27F00DBB
:1006C000B11DAA1F649F6627B00DA11D661F829FE2
:1006D0002227B00DA11D621F739FB00DA11D621FC7
:1006E000839FA00D611D221F749F3327A00D611DE4
:1006F000231F849F600D211D822F762F6A2F1124C6
:100700009F5750409AF0F1F088234AF0EE0FFF1FF8
:10071000BB1F661F771F881F91505040A9F79E3F4F
:10072000510580F00C949B020C94E6025F3FE4F3C9
:10073000983ED4F3869577956795B795F795E795A5
:100740009F5FC1F7FE2B880F911D9695879597F9AE
:1007500008955058BB27AA270E94C1030C94B202E7
:100760000E94A40238F00E94AB0220F039F49F3FAF
:1007700019F426F40C94A1020EF4E095E7FB0C9416
:100780009B02E92F0E94C30258F3BA17620773074E
:100790008407950720F079F4A6F50C94E5020EF491
:1007A000E0950B2EBA2FA02D0B01B90190010C0181
:1007B000CA01A0011124FF27591B99F0593F50F499
:1007C000503E68F11A16F040A22F232F342F4427F1
:1007D000585FF3CF469537952795A795F0405395E9
:1007E000C9F77EF41F16BA0B620B730B840BBAF0B9
:1007F0009150A1F0FF0FBB1F661F771F881FC2F724
:100800000EC0BA0F621F731F841F48F48795779537
:100810006795B795F7959E3F08F0B0CF9395880FF1
:1008200008F09927EE0F9795879508959F3F31F02F
:10083000915020F4879577956795B795880F911D0E
:100840009695879597F90895DF93CF931F930F930C
:10085000FF92EF92DF927B018C01689406C0DA2E42
:10086000EF010E944F03FE01E894A5912591359177
:1008700045915591A6F3EF010E94C103FE01970136
:10088000A801DA9469F7DF90EF90FF900F911F9124
:10089000CF91DF910895A1E21A2EAA1BBB1BFD0187
:1008A0000DC0AA1FBB1FEE1FFF1FA217B307E4074F
:1008B000F50720F0A21BB30BE40BF50B661F771FA7
:1008C000881F991F1A9469F7609570958095909587
:1008D0009B01AC01BD01CF010895052E97FB1EF4CD
:1008E00000940E94840457FD07D00E944B0407FC2B
:1008F00003D04EF40C948404509540953095219586
:100900003F4F4F4F5F4F089590958095709561953B
:100910007F4F8F4F9F4F0895BB272A3051F4992363
:1009200042F4BDE290958095709561957F4F8F4F11
:100930009F4F0C949C04BB27FA01A62F62177105E8
:1009400081059105330B30FB66F0AA27660F771FF0
:10095000881F991FAA1FA21710F0A21B6395385079
:10096000A9F7A05DAA3308F0A95DA19336F7B111EC
:10097000B1931082CA010C94BD04DC01FC01672F05
:1009800071917723E1F7329704C07C916D93708366
:0E0990006291AE17BF07C8F30895F894FFCF29
:10099E000A74656D70657261747572613A2000003B
:0409AE000000000045
:00000001FF
